S01E00004368756C79756B6F765F3232312D3137315F546573742E7372656383
S11300000C942A000C9434000C9434000C943400A6
S11300100C9434000C9434000C9434000C9434008C
S11300200C9434000C9434000C9434000C9434007C
S11300300C9434000C9434000C9434000C9434006C
S11300400C9434000C9434000C9434000C9434005C
S11300500C94340011241FBECFE5D8E0DEBFCDBF21
S11300600E943F000C94C0000C9400008FEF81BBF1
S113007087B38E7F87BB88B3816088BB08950E9455
S1130080360060E0B0990FC08FE493EC0197F1F76C
S113009000C00000B09907C06F5F63300CF060E0EF
S11300A012BAB09BFECF6130C9F1623009F44DC081
S11300B06111E8CF11C021E030E0082E02C0220F08
S11300C0331F0A94E2F722BBE3E2F4EF3197F1F72E
S11300D000C000008F5F01C080E0883064F3D2CF9D
S11300E081E090E0FC01022E02C0EE0FFF1F0A9493
S11300F0E2F747E050E0421B510927FD539502C047
S1130100880F991F4A95E2F78E2B82BB83E294EF06
S11301100197F1F700C000002F5F01C020E02730F5
S1130120FCF2B0CF32B381E090E0022E02C0880F1F
S1130130991F0A94E2F7832B82BBE3E2F4EF319731
S1130140F1F700C000002F5F01C020E0283054F315
S113015027E013C032B381E090E0022E02C0880F82
S1130160991F0A94E2F78095832382BB83E294EF7C
S11301700197F1F700C00000215022235CF782CFE1
S1070180F894FFCF1D
S9030000FC
